{
  "contractName": "EtherWallet",
  "abi": [
    {
      "inputs": [
        {
          "internalType": "address",
          "name": "_owner",
          "type": "address"
        }
      ],
      "stateMutability": "nonpayable",
      "type": "constructor"
    },
    {
      "inputs": [],
      "name": "owner",
      "outputs": [
        {
          "internalType": "address",
          "name": "",
          "type": "address"
        }
      ],
      "stateMutability": "view",
      "type": "function",
      "constant": true
    },
    {
      "inputs": [],
      "name": "deposit",
      "outputs": [],
      "stateMutability": "payable",
      "type": "function",
      "payable": true
    },
    {
      "inputs": [
        {
          "internalType": "address payable",
          "name": "to",
          "type": "address"
        },
        {
          "internalType": "uint256",
          "name": "amount",
          "type": "uint256"
        }
      ],
      "name": "send",
      "outputs": [],
      "stateMutability": "nonpayable",
      "type": "function"
    },
    {
      "inputs": [],
      "name": "balanceOf",
      "outputs": [
        {
          "internalType": "uint256",
          "name": "",
          "type": "uint256"
        }
      ],
      "stateMutability": "view",
      "type": "function",
      "constant": true
    }
  ],
  "bytecode": "0x608060405234801561001057600080fd5b5060405161028738038061028783398101604081905261002f91610054565b600080546001600160a01b0319166001600160a01b0392909216919091179055610082565b600060208284031215610065578081fd5b81516001600160a01b038116811461007b578182fd5b9392505050565b6101f6806100916000396000f3fe60806040526004361061003f5760003560e01c8063722713f7146100445780638da5cb5b1461006f578063d0679d3414610091578063d0e30db0146100b3575b600080fd5b34801561005057600080fd5b506100596100bb565b60405161006691906101b7565b60405180910390f35b34801561007b57600080fd5b506100846100bf565b6040516100669190610174565b34801561009d57600080fd5b506100b16100ac36600461013e565b6100ce565b005b6100b161013c565b4790565b6000546001600160a01b031681565b6000546001600160a01b031633146101015760405162461bcd60e51b81526004016100f890610188565b60405180910390fd5b6040516001600160a01b0383169082156108fc029083906000818181858888f19350505050158015610137573d6000803e3d6000fd5b505050565b565b60008060408385031215610150578182fd5b82356001600160a01b0381168114610166578283fd5b946020939093013593505050565b6001600160a01b0391909116815260200190565b6020808252601590820152741cd95b99195c881a5cc81b9bdd08185b1b1bddd959605a1b604082015260600190565b9081526020019056fea264697066735822122037ca5786aa460b8897cbabcdae7ede0e6dfdd6b32068d661ddffd6956b83dc5664736f6c63430008000033",
  "immutableReferences": {},
  "source": "// SPDX-License-Identifier: MIT \r\npragma solidity ^0.8.0;\r\n\r\ncontract EtherWallet {\r\n\r\n    address public owner;\r\n\r\n    constructor(address _owner) {\r\n        owner = _owner;\r\n    }\r\n\r\n    function deposit() payable public {\r\n    }\r\n\r\n    function send(address payable to, uint amount) public {\r\n        require(msg.sender == owner, \"sender is not allowed\");\r\n        to.transfer(amount);\r\n    }\r\n\r\n    function balanceOf() view public returns(uint) {\r\n        return address(this).balance;\r\n    }\r\n}",
  "sourcePath": "C:\\Users\\cassi\\Documents\\DApps\\EtherWallet\\contracts\\EtherWallet.sol",
  "compiler": {
    "name": "solc",
    "version": "0.8.0+commit.c7dfd78e.Emscripten.clang"
  },
  "schemaVersion": "3.4.16",
  "updatedAt": "2023-11-13T22:55:36.393Z",
  "networkType": "ethereum",
  "devdoc": {
    "kind": "dev",
    "methods": {},
    "version": 1
  },
  "userdoc": {
    "kind": "user",
    "methods": {},
    "version": 1
  }
}